{
  "_format": "hh-sol-artifact-1",
  "contractName": "WavePortal",
  "sourceName": "contracts/WavePortal.sol",
  "abi": [
    {
      "inputs": [],
      "stateMutability": "payable",
      "type": "constructor"
    },
    {
      "anonymous": false,
      "inputs": [
        {
          "indexed": true,
          "internalType": "address",
          "name": "from",
          "type": "address"
        },
        {
          "indexed": false,
          "internalType": "uint256",
          "name": "timestamp",
          "type": "uint256"
        },
        {
          "indexed": false,
          "internalType": "string",
          "name": "message",
          "type": "string"
        }
      ],
      "name": "NewWave",
      "type": "event"
    },
    {
      "anonymous": false,
      "inputs": [
        {
          "indexed": true,
          "internalType": "address",
          "name": "previousOwner",
          "type": "address"
        },
        {
          "indexed": true,
          "internalType": "address",
          "name": "newOwner",
          "type": "address"
        }
      ],
      "name": "OwnershipTransferred",
      "type": "event"
    },
    {
      "inputs": [],
      "name": "getAllWaves",
      "outputs": [
        {
          "components": [
            {
              "internalType": "address",
              "name": "waver",
              "type": "address"
            },
            {
              "internalType": "string",
              "name": "message",
              "type": "string"
            },
            {
              "internalType": "uint256",
              "name": "timestamp",
              "type": "uint256"
            }
          ],
          "internalType": "struct WavePortal.Wave[]",
          "name": "",
          "type": "tuple[]"
        }
      ],
      "stateMutability": "view",
      "type": "function"
    },
    {
      "inputs": [],
      "name": "getTotalWaves",
      "outputs": [
        {
          "internalType": "uint256",
          "name": "",
          "type": "uint256"
        }
      ],
      "stateMutability": "view",
      "type": "function"
    },
    {
      "inputs": [
        {
          "internalType": "address",
          "name": "waverAddress",
          "type": "address"
        }
      ],
      "name": "getTotalWavesByAddress",
      "outputs": [
        {
          "internalType": "uint256",
          "name": "",
          "type": "uint256"
        }
      ],
      "stateMutability": "view",
      "type": "function"
    },
    {
      "inputs": [
        {
          "internalType": "address",
          "name": "",
          "type": "address"
        }
      ],
      "name": "lastWavedAt",
      "outputs": [
        {
          "internalType": "uint256",
          "name": "",
          "type": "uint256"
        }
      ],
      "stateMutability": "view",
      "type": "function"
    },
    {
      "inputs": [],
      "name": "owner",
      "outputs": [
        {
          "internalType": "address",
          "name": "",
          "type": "address"
        }
      ],
      "stateMutability": "view",
      "type": "function"
    },
    {
      "inputs": [],
      "name": "renounceOwnership",
      "outputs": [],
      "stateMutability": "nonpayable",
      "type": "function"
    },
    {
      "inputs": [
        {
          "internalType": "address",
          "name": "newOwner",
          "type": "address"
        }
      ],
      "name": "transferOwnership",
      "outputs": [],
      "stateMutability": "nonpayable",
      "type": "function"
    },
    {
      "inputs": [
        {
          "internalType": "string",
          "name": "_message",
          "type": "string"
        }
      ],
      "name": "wave",
      "outputs": [],
      "stateMutability": "nonpayable",
      "type": "function"
    }
  ],
  "bytecode": "0x6080604052600a600155620000296200001d6200009060201b60201c565b6200009860201b60201c565b620000746040518060400160405280600d81526020017f436f6e74727563746564212121000000000000000000000000000000000000008152506200015c60201b62000ad31760201c565b62000084620001ff60201b60201c565b6006819055506200054c565b600033905090565b60008060009054906101000a900473ffffffffffffffffffffffffffffffffffffffff169050816000806101000a81548173ffffffffffffffffffffffffffffffffffffffff021916908373ffffffffffffffffffffffffffffffffffffffff1602179055508173ffffffffffffffffffffffffffffffffffffffff168173ffffffffffffffffffffffffffffffffffffffff167f8be0079c531659141344cd1fd0a4f28419497f9722a3daafe3b4186f6b6457e060405160405180910390a35050565b620001fc8160405160240162000173919062000394565b6040516020818303038152906040527f41304fac000000000000000000000000000000000000000000000000000000007bffffffffffffffffffffffffffffffffffffffffffffffffffffffff19166020820180517bffffffffffffffffffffffffffffffffffffffffffffffffffffffff83818316178352505050506200027360201b60201c565b50565b6000806064444262000212919062000408565b6200021e9190620004a5565b90506200026c6040518060400160405280601b81526020017f52616e646f6d206e756d6265722067656e6572617465643a2025640000000000815250826200029c60201b62000b6c1760201c565b8091505090565b60008151905060006a636f6e736f6c652e6c6f679050602083016000808483855afa5050505050565b6200033e8282604051602401620002b5929190620003b8565b6040516020818303038152906040527f9710a9d0000000000000000000000000000000000000000000000000000000007bffffffffffffffffffffffffffffffffffffffffffffffffffffffff19166020820180517bffffffffffffffffffffffffffffffffffffffffffffffffffffffff83818316178352505050506200027360201b60201c565b5050565b60006200034f82620003ec565b6200035b8185620003f7565b93506200036d8185602086016200046f565b62000378816200053b565b840191505092915050565b6200038e8162000465565b82525050565b60006020820190508181036000830152620003b0818462000342565b905092915050565b60006040820190508181036000830152620003d4818562000342565b9050620003e5602083018462000383565b9392505050565b600081519050919050565b600082825260208201905092915050565b6000620004158262000465565b9150620004228362000465565b9250827fffffffffffffffffffffffffffffffffffffffffffffffffffffffffffffffff038211156200045a5762000459620004dd565b5b828201905092915050565b6000819050919050565b60005b838110156200048f57808201518184015260208101905062000472565b838111156200049f576000848401525b50505050565b6000620004b28262000465565b9150620004bf8362000465565b925082620004d257620004d16200050c565b5b828206905092915050565b7f4e487b7100000000000000000000000000000000000000000000000000000000600052601160045260246000fd5b7f4e487b7100000000000000000000000000000000000000000000000000000000600052601260045260246000fd5b6000601f19601f8301169050919050565b6119c6806200055c6000396000f3fe608060405234801561001057600080fd5b50600436106100885760003560e01c80639a2cdc081161005b5780639a2cdc0814610101578063a42a46631461011f578063bd43a9081461014f578063f2fde38b1461016d57610088565b80631e0070d31461008d578063449d46c0146100bd578063715018a6146100d95780638da5cb5b146100e3575b600080fd5b6100a760048036038101906100a29190610ff8565b610189565b6040516100b491906115ed565b60405180910390f35b6100d760048036038101906100d29190611021565b610234565b005b6100e1610776565b005b6100eb6107fe565b6040516100f89190611430565b60405180910390f35b610109610827565b60405161011691906115ed565b60405180910390f35b61013960048036038101906101349190610ff8565b610872565b60405161014691906115ed565b60405180910390f35b61015761088a565b604051610164919061144b565b60405180910390f35b61018760048036038101906101829190610ff8565b6109db565b005b60006101ed60405180606001604052806022815260200161196f6022913983600460008673ffffffffffffffffffffffffffffffffffffffff1673ffffffffffffffffffffffffffffffffffffffff16815260200190815260200160002054610c08565b600460008373ffffffffffffffffffffffffffffffffffffffff1673ffffffffffffffffffffffffffffffffffffffff168152602001908152602001600020549050919050565b61023c610ca7565b610344576102bf6040518060400160405280601181526020017f25732077617665642025642074696d657300000000000000000000000000000081525033600460003373ffffffffffffffffffffffffffffffffffffffff1673ffffffffffffffffffffffffffffffffffffffff16815260200190815260200160002054610c08565b600154600460003373ffffffffffffffffffffffffffffffffffffffff1673ffffffffffffffffffffffffffffffffffffffff168152602001908152602001600020541115610343576040517f08c379a000000000000000000000000000000000000000000000000000000000815260040161033a9061152d565b60405180910390fd5b5b42601e600560003373ffffffffffffffffffffffffffffffffffffffff1673ffffffffffffffffffffffffffffffffffffffff16815260200190815260200160002054610391919061170a565b106103d1576040517f08c379a00000000000000000000000000000000000000000000000000000000081526004016103c89061154d565b60405180910390fd5b42600560003373ffffffffffffffffffffffffffffffffffffffff1673ffffffffffffffffffffffffffffffffffffffff16815260200190815260200160002081905550600160036000828254610428919061170a565b925050819055506000600460003373ffffffffffffffffffffffffffffffffffffffff1673ffffffffffffffffffffffffffffffffffffffff1681526020019081526020016000205490508061047d90611810565b905080600460003373ffffffffffffffffffffffffffffffffffffffff1673ffffffffffffffffffffffffffffffffffffffff16815260200190815260200160002081905550600260405180606001604052803373ffffffffffffffffffffffffffffffffffffffff16815260200184815260200142815250908060018154018082558091505060019003906000526020600020906003020160009091909190915060008201518160000160006101000a81548173ffffffffffffffffffffffffffffffffffffffff021916908373ffffffffffffffffffffffffffffffffffffffff1602179055506020820151816001019080519060200190610582929190610ed8565b50604082015181600201555050610597610ce4565b6006819055506032600654116106e3576105e66040518060400160405280600781526020017f257320776f6e210000000000000000000000000000000000000000000000000081525033610d47565b6000655af3107a4000905047811115610634576040517f08c379a000000000000000000000000000000000000000000000000000000000815260040161062b9061158d565b60405180910390fd5b60003373ffffffffffffffffffffffffffffffffffffffff168260405161065a9061141b565b60006040518083038185875af1925050503d8060008114610697576040519150601f19603f3d011682016040523d82523d6000602084013e61069c565b606091505b50509050806106e0576040517f08c379a00000000000000000000000000000000000000000000000000000000081526004016106d7906115ad565b60405180910390fd5b50505b3373ffffffffffffffffffffffffffffffffffffffff167f5f7e16dc676677766a70e9c5628aa6c54ddb8b6e5188e2ae1e1f17f1ffbea716428460405161072b929190611608565b60405180910390a26107726040518060400160405280600d81526020017f257320686173207761766564210000000000000000000000000000000000000081525033610d47565b5050565b61077e610de3565b73ffffffffffffffffffffffffffffffffffffffff1661079c6107fe565b73ffffffffffffffffffffffffffffffffffffffff16146107f2576040517f08c379a00000000000000000000000000000000000000000000000000000000081526004016107e9906115cd565b60405180910390fd5b6107fc6000610deb565b565b60008060009054906101000a900473ffffffffffffffffffffffffffffffffffffffff16905090565b600061086a6040518060400160405280601681526020017f546f74616c20776176657320736f206661723a20256400000000000000000000815250600354610b6c565b600354905090565b60056020528060005260406000206000915090505481565b60606002805480602002602001604051908101604052809291908181526020016000905b828210156109d257838290600052602060002090600302016040518060600160405290816000820160009054906101000a900473ffffffffffffffffffffffffffffffffffffffff1673ffffffffffffffffffffffffffffffffffffffff1673ffffffffffffffffffffffffffffffffffffffff168152602001600182018054610937906117de565b80601f0160208091040260200160405190810160405280929190818152602001828054610963906117de565b80156109b05780601f10610985576101008083540402835291602001916109b0565b820191906000526020600020905b81548152906001019060200180831161099357829003601f168201915b50505050508152602001600282015481525050815260200190600101906108ae565b50505050905090565b6109e3610de3565b73ffffffffffffffffffffffffffffffffffffffff16610a016107fe565b73ffffffffffffffffffffffffffffffffffffffff1614610a57576040517f08c379a0000000000000000000000000000000000000000000000000000000008152600401610a4e906115cd565b60405180910390fd5b600073ffffffffffffffffffffffffffffffffffffffff168173ffffffffffffffffffffffffffffffffffffffff161415610ac7576040517f08c379a0000000000000000000000000000000000000000000000000000000008152600401610abe9061156d565b60405180910390fd5b610ad081610deb565b50565b610b6981604051602401610ae7919061146d565b6040516020818303038152906040527f41304fac000000000000000000000000000000000000000000000000000000007bffffffffffffffffffffffffffffffffffffffffffffffffffffffff19166020820180517bffffffffffffffffffffffffffffffffffffffffffffffffffffffff8381831617835250505050610eaf565b50565b610c048282604051602401610b829291906114fd565b6040516020818303038152906040527f9710a9d0000000000000000000000000000000000000000000000000000000007bffffffffffffffffffffffffffffffffffffffffffffffffffffffff19166020820180517bffffffffffffffffffffffffffffffffffffffffffffffffffffffff8381831617835250505050610eaf565b5050565b610ca2838383604051602401610c20939291906114bf565b6040516020818303038152906040527f07c81217000000000000000000000000000000000000000000000000000000007bffffffffffffffffffffffffffffffffffffffffffffffffffffffff19166020820180517bffffffffffffffffffffffffffffffffffffffffffffffffffffffff8381831617835250505050610eaf565b505050565b6000610cb16107fe565b73ffffffffffffffffffffffffffffffffffffffff163373ffffffffffffffffffffffffffffffffffffffff1614905090565b60008060644442610cf5919061170a565b610cff9190611859565b9050610d406040518060400160405280601b81526020017f52616e646f6d206e756d6265722067656e6572617465643a202564000000000081525082610b6c565b8091505090565b610ddf8282604051602401610d5d92919061148f565b6040516020818303038152906040527f319af333000000000000000000000000000000000000000000000000000000007bffffffffffffffffffffffffffffffffffffffffffffffffffffffff19166020820180517bffffffffffffffffffffffffffffffffffffffffffffffffffffffff8381831617835250505050610eaf565b5050565b600033905090565b60008060009054906101000a900473ffffffffffffffffffffffffffffffffffffffff169050816000806101000a81548173ffffffffffffffffffffffffffffffffffffffff021916908373ffffffffffffffffffffffffffffffffffffffff1602179055508173ffffffffffffffffffffffffffffffffffffffff168173ffffffffffffffffffffffffffffffffffffffff167f8be0079c531659141344cd1fd0a4f28419497f9722a3daafe3b4186f6b6457e060405160405180910390a35050565b60008151905060006a636f6e736f6c652e6c6f679050602083016000808483855afa5050505050565b828054610ee4906117de565b90600052602060002090601f016020900481019282610f065760008555610f4d565b82601f10610f1f57805160ff1916838001178555610f4d565b82800160010185558215610f4d579182015b82811115610f4c578251825591602001919060010190610f31565b5b509050610f5a9190610f5e565b5090565b5b80821115610f77576000816000905550600101610f5f565b5090565b6000610f8e610f8984611669565b611638565b905082815260208101848484011115610fa657600080fd5b610fb184828561179c565b509392505050565b600081359050610fc881611957565b92915050565b600082601f830112610fdf57600080fd5b8135610fef848260208601610f7b565b91505092915050565b60006020828403121561100a57600080fd5b600061101884828501610fb9565b91505092915050565b60006020828403121561103357600080fd5b600082013567ffffffffffffffff81111561104d57600080fd5b61105984828501610fce565b91505092915050565b600061106e83836113ad565b905092915050565b61107f81611760565b82525050565b61108e81611760565b82525050565b600061109f826116a9565b6110a981856116cc565b9350836020820285016110bb85611699565b8060005b858110156110f757848403895281516110d88582611062565b94506110e3836116bf565b925060208a019950506001810190506110bf565b50829750879550505050505092915050565b6000611114826116b4565b61111e81856116e8565b935061112e8185602086016117ab565b61113781611946565b840191505092915050565b600061114d826116b4565b61115781856116f9565b93506111678185602086016117ab565b61117081611946565b840191505092915050565b60006111886015836116f9565b91507f492068617665206265656e20626f7468657265642e00000000000000000000006000830152602082019050919050565b60006111c86030836116f9565b91507f57616974203330207365636f6e6473206265666f726520796f752063616e207760008301527f617665206174206d6520616761696e2e000000000000000000000000000000006020830152604082019050919050565b600061122e6026836116f9565b91507f4f776e61626c653a206e6577206f776e657220697320746865207a65726f206160008301527f64647265737300000000000000000000000000000000000000000000000000006020830152604082019050919050565b60006112946034836116f9565b91507f547279696e6720746f207769746864726177206d6f7265206d6f6e657920746860008301527f616e2074686520636f6e7472616374206861732e0000000000000000000000006020830152604082019050919050565b60006112fa6027836116f9565b91507f4661696c656420746f207769746864726177206d6f6e65792066726f6d20636f60008301527f6e74726163742e000000000000000000000000000000000000000000000000006020830152604082019050919050565b60006113606020836116f9565b91507f4f776e61626c653a2063616c6c6572206973206e6f7420746865206f776e65726000830152602082019050919050565b60006113a06000836116dd565b9150600082019050919050565b60006060830160008301516113c56000860182611076565b50602083015184820360208601526113dd8282611109565b91505060408301516113f260408601826113fd565b508091505092915050565b61140681611792565b82525050565b61141581611792565b82525050565b600061142682611393565b9150819050919050565b60006020820190506114456000830184611085565b92915050565b600060208201905081810360008301526114658184611094565b905092915050565b600060208201905081810360008301526114878184611142565b905092915050565b600060408201905081810360008301526114a98185611142565b90506114b86020830184611085565b9392505050565b600060608201905081810360008301526114d98186611142565b90506114e86020830185611085565b6114f5604083018461140c565b949350505050565b600060408201905081810360008301526115178185611142565b9050611526602083018461140c565b9392505050565b600060208201905081810360008301526115468161117b565b9050919050565b60006020820190508181036000830152611566816111bb565b9050919050565b6000602082019050818103600083015261158681611221565b9050919050565b600060208201905081810360008301526115a681611287565b9050919050565b600060208201905081810360008301526115c6816112ed565b9050919050565b600060208201905081810360008301526115e681611353565b9050919050565b6000602082019050611602600083018461140c565b92915050565b600060408201905061161d600083018561140c565b818103602083015261162f8184611142565b90509392505050565b6000604051905081810181811067ffffffffffffffff8211171561165f5761165e611917565b5b8060405250919050565b600067ffffffffffffffff82111561168457611683611917565b5b601f19601f8301169050602081019050919050565b6000819050602082019050919050565b600081519050919050565b600081519050919050565b6000602082019050919050565b600082825260208201905092915050565b600081905092915050565b600082825260208201905092915050565b600082825260208201905092915050565b600061171582611792565b915061172083611792565b9250827fffffffffffffffffffffffffffffffffffffffffffffffffffffffffffffffff038211156117555761175461188a565b5b828201905092915050565b600061176b82611772565b9050919050565b600073ffffffffffffffffffffffffffffffffffffffff82169050919050565b6000819050919050565b82818337600083830152505050565b60005b838110156117c95780820151818401526020810190506117ae565b838111156117d8576000848401525b50505050565b600060028204905060018216806117f657607f821691505b6020821081141561180a576118096118e8565b5b50919050565b600061181b82611792565b91507fffffffffffffffffffffffffffffffffffffffffffffffffffffffffffffffff82141561184e5761184d61188a565b5b600182019050919050565b600061186482611792565b915061186f83611792565b92508261187f5761187e6118b9565b5b828206905092915050565b7f4e487b7100000000000000000000000000000000000000000000000000000000600052601160045260246000fd5b7f4e487b7100000000000000000000000000000000000000000000000000000000600052601260045260246000fd5b7f4e487b7100000000000000000000000000000000000000000000000000000000600052602260045260246000fd5b7f4e487b7100000000000000000000000000000000000000000000000000000000600052604160045260246000fd5b6000601f19601f8301169050919050565b61196081611760565b811461196b57600080fd5b5056fe546f74616c20776176657320736f206661722066726f6d3a20257320617265202564a2646970667358221220bee8599adf571938f6c83cf17b6972eff08ab5f8d565c21c2c688bbc87ece2ed64736f6c63430008000033",
  "linkReferences": {},
  "deployedLinkReferences": {}
}